:100000000C9462000C9411040C94EA030C948A0082
:100010000C948A000C948A000C948A000C948A0038
:100020000C948A000C948A000C948A000C948A0028
:100030000C948A000C948A000C948A000C948A0018
:100040000C94A0030C948A000C945E040C94380465
:100050000C948A000C948A000C948A000C948A00F8
:100060000C948A000C948A000000000024002700F1
:100070002A0000000000250028002B0000000000DE
:1000800023002600290004040404040404040202DA
:100090000202020203030303030301020408102007
:1000A0004080010204081020010204081020000012
:1000B0000008000201000003040700000000000027
:1000C0000000C60711241FBECFEFD8E0DEBFCDBFB2
:1000D00021E0ACE1B1E001C01D92A53FB207E1F71C
:1000E00011E0A0E0B1E0E0E4F2E102C005900D9281
:1000F000AC31B107D9F710E0C2E6D0E004C02197D7
:10010000FE010E94F307C136D107C9F70E9490048F
:100110000C941E090C940000833081F028F4813087
:1001200099F08230A9F008958730A9F08830C9F09D
:100130008430B1F4809180008F7D03C08091800075
:100140008F7780938000089584B58F7784BD08955C
:1001500084B58F7DFBCF8091B0008F778093B00006
:1001600008958091B0008F7DF9CFCF93DF93282F32
:1001700030E0F901E255FF4F8491F901E656FF4F57
:10018000D491F901EA57FF4FC491CC23A1F081111A
:100190000E948C00EC2FF0E0EE0FFF1FE458FF4FA1
:1001A000A591B491EC91ED2381E090E009F480E019
:1001B000DF91CF91089580E090E0FACF1F93CF9325
:1001C000DF93282F30E0F901E255FF4F8491F901C8
:1001D000E656FF4FD491F901EA57FF4FC491CC2363
:1001E000A9F0162F81110E948C00EC2FF0E0EE0F89
:1001F000FF1FEE58FF4FA591B4918FB7F894EC9183
:10020000111108C0D095DE23DC938FBFDF91CF9111
:100210001F910895DE2BF8CFCF93DF9390E0FC0180
:10022000E656FF4F24918A579F4FFC018491882303
:10023000D1F090E0880F991FFC01E859FF4FA5917C
:10024000B491FC01EE58FF4FC591D491623071F426
:100250009FB7F8943C91822F809583238C93E881FB
:100260002E2B28839FBFDF91CF9108958FB7F894ED
:10027000EC912E2B2C938FBFF6CF3FB7F894809143
:10028000500190915101A0915201B091530126B5B6
:10029000A89B05C02F3F19F00196A11DB11D3FBFBE
:1002A000BA2FA92F982F8827BC01CD01620F711D8D
:1002B000811D911D42E0660F771F881F991F4A9587
:1002C000D1F708958F929F92AF92BF92CF92DF9213
:1002D000EF92FF924B015C010E943D016B017C019A
:1002E0000E943D016C197D098E099F09683E73408B
:1002F00081059105A8F321E0821A9108A108B108AF
:1003000088EEC80E83E0D81EE11CF11C8114910414
:10031000A104B10429F7FF90EF90DF90CF90BF9038
:10032000AF909F908F9008952FB7F89460914C01F3
:1003300070914D0180914E0190914F012FBF089512
:100340000895AF92BF92CF92DF92EF92FF920F93F8
:100350001F93CF93DF936C017B018B01040F151F5B
:10036000EB015E01AE18BF08C017D10759F06991C3
:10037000D601ED91FC910190F081E02DC601099527
:10038000892B79F7C501DF91CF911F910F91FF90D4
:10039000EF90DF90CF90BF90AF900895FC01538D08
:1003A000448D252F30E0842F90E0821B930B54174F
:1003B00010F0CF96089501970895FC01918D828DDC
:1003C000981761F0A28DAE0FBF2FB11D5D968C9175
:1003D000928D9F5F9F73928F90E008958FEF9FEFB4
:1003E00008958F929F92AF92BF92EF92FF920F93D8
:1003F0001F93CF93DF937B018C01D0E0C0E00E947C
:10040000940160935C0170935D0180935E01909311
:100410005F0184E591E00E94DD0197FF27C00E9403
:10042000940180905C0190905D01A0905E01B0907D
:100430005F01681979098A099B0980905801909099
:100440005901A0905A01B0905B01681579058A05A1
:100450009B05F8F2CE01DF91CF911F910F91FF9094
:10046000EF90BF90AF909F908F900895F801819387
:100470008F012196EC16FD0611F6ECCFFC01918D53
:10048000828D981731F0828DE80FF11D858D90E0F7
:1004900008958FEF9FEF0895FC01918D228D892F94
:1004A00090E0805C9F4F821B91098F73992708957C
:1004B00084E591E00E944C0221E0892B09F420E0C0
:1004C000822F089580E090E0892B29F00E94580245
:1004D00081110C9400000895FC01A48DA80FB92F80
:1004E000B11DA35ABF4F2C91848D90E001968F735C
:1004F0009927848FA689B7892C93A089B1898C917B
:10050000837080648C93938D848D981306C00288C9
:10051000F389E02D80818F7D80830895EF92FF9293
:100520000F931F93CF93DF93EC0181E0888F9B8D16
:100530008C8D98131AC0E889F989808185FF15C0D0
:100540009FB7F894EE89FF896083E889F9898081F3
:100550008370806480839FBF81E090E0DF91CF91C2
:100560001F910F91FF90EF900895F62E0B8D10E0E4
:100570000F5F1F4F0F731127E02E8C8D8E110CC053
:100580000FB607FCFACFE889F989808185FFF5CF9E
:10059000CE010E946C02F1CFEB8DEC0FFD2FF11D0F
:1005A000E35AFF4FF0829FB7F8940B8FEA89FB89DB
:1005B00080818062CFCF682F84E591E00C948E0219
:1005C000CF93DF93EC01888D8823B9F0AA89BB898A
:1005D000E889F9898C9185FD03C0808186FD0DC075
:1005E0000FB607FCF7CF8C9185FFF2CF808185FF96
:1005F000EDCFCE010E946C02E9CFDF91CF9108953B
:100600000F931F93CF93DF930E94940100911C01DD
:1006100010911D0120911E0130911F01061717072F
:100620002807390799F083E00E94B500EC0182E0C9
:100630000E94B500C817D90771F080912C019091E4
:100640002D01019690932D0180932C01DF91CF9184
:100650001F910F91089580912C0190912D01019788
:10066000F1CF84E591E00E944C02892B29F084E5CA
:1006700091E00E94DD01F5CF0895CF93DF932091A3
:100680003D0130913E01D0E0C0E02130310519F448
:10069000FC01C081D0E061E089E00E940C0120975C
:1006A00031F460E089E0DF91CF910C94DE00CF3F20
:1006B000D10511F461E0F6CFE7EBF0E0E491E3302F
:1006C00029F140F4E130B1F0E230D9F0C038D10581
:1006D0008CF7E7CFE73021F1E83051F1E430B1F7A2
:1006E00080918000806280938000D0938B00C093C3
:1006F0008A0004C084B5806884BDC7BDDF91CF91F6
:10070000089584B5806284BDC8BDF8CF8091800013
:10071000806880938000D0938900C0938800EECFDA
:100720008091B00080688093B000C093B300E6CFA2
:100730008091B00080628093B000C093B400DECF9F
:100740001F920F920FB60F9211242F933F938F9306
:100750009F93AF93BF9380914C0190914D01A091D5
:100760004E01B0914F0130914B0123E0230F2D3703
:1007700058F50196A11DB11D20934B0180934C01AA
:1007800090934D01A0934E01B0934F018091500181
:1007900090915101A0915201B09153010196A11D78
:1007A000B11D8093500190935101A0935201B093D9
:1007B0005301BF91AF919F918F913F912F910F90D6
:1007C0000FBE0F901F90189526E8230F0296A11DCB
:1007D000B11DD2CF1F920F920FB60F9211242F93FB
:1007E0003F934F935F936F937F938F939F93AF93B9
:1007F000BF93EF93FF93E0910201F09103010995FC
:10080000FF91EF91BF91AF919F918F917F916F91E8
:100810005F914F913F912F910F900FBE0F901F90BE
:1008200018951F920F920FB60F9211242F933F939A
:100830004F935F936F937F938F939F93AF93BF93E8
:10084000EF93FF93E0910001F09101010995FF9171
:10085000EF91BF91AF919F918F917F916F915F9138
:100860004F913F912F910F900FBE0F901F901895B1
:100870001F920F920FB60F9211242F933F934F9315
:100880005F936F937F938F939F93AF93BF93EF93F8
:10089000FF9384E591E00E946C02FF91EF91BF917C
:1008A000AF919F918F917F916F915F914F913F9108
:1008B0002F910F900FBE0F901F9018951F920F92BF
:1008C0000FB60F9211242F938F939F93EF93FF9363
:1008D000E0916401F09165018081E0916A01F091FD
:1008E0006B0182FD1BC0908180916D018F5F8F73C2
:1008F00020916E01821741F0E0916D01F0E0EC5A19
:10090000FE4F958F80936D01FF91EF919F918F9195
:100910002F910F900FBE0F901F9018958081F4CFEC
:10092000789484B5826084BD84B5816084BD85B5CA
:10093000826085BD85B5816085BD80916E008160D6
:1009400080936E001092810080918100826080937C
:10095000810080918100816080938100809180007E
:100960008160809380008091B10084608093B100A9
:100970008091B00081608093B00080917A008460A3
:1009800080937A0080917A00826080937A008091CF
:100990007A00816080937A0080917A0080688093E9
:1009A0007A001092C100E0916401F091650182E04B
:1009B0008083E0916001F09161011082E091620119
:1009C000F091630180E1808310926C01E0916801F5
:1009D000F091690186E08083E0916601F091670102
:1009E000808180618083E0916601F0916701808160
:1009F00088608083E0916601F09167018081806862
:100A00008083E0916601F091670180818F7D808312
:100A100068EE73E080E090E00E9462010E94310382
:100A200061E08DE00E940C0161E08CE00E940C010D
:100A300061E08BE00E940C0161E08AE00E940C0101
:100A400062E084E00E940C0162E085E00E940C01FB
:100A500062E086E00E940C0162E087E00E940C01E7
:100A600060E08DE00E94DE0060E08CE00E94DE002D
:100A700060E08BE00E94DE0060E08AE00E94DE0021
:100A800061E070E080E090E00E94620162E082E05C
:100A90000E940C0162E083E00E940C0161E089E0A9
:100AA0000E940C0161E089E00E940C0160E089E095
:100AB0000E94DE0080E093E09093010180930001AA
:100AC00080916900836080936900E89A10921C010C
:100AD00010921D0110921E0110921F012AE2C22ED7
:100AE00021E0D22E30E0632E30E0732EC1E043E0EF
:100AF000542E44244A9484E591E00E944C02181636
:100B000019060CF002C20E94940160934701709391
:100B100048018093490190934A0161E070E081E4CB
:100B200091E00E94F1018093400110913F0180917A
:100B300041011111B0C010923E0110923D0184306C
:100B400009F081C063E070E08AE391E00E94F10166
:100B50008093400190913A0180913B0120913C01AA
:100B60008227292F28272093390150923801981382
:100B70006AC061E070E081E491E00E94F10180933D
:100B800040010E94310380914101853009F05DC030
:100B9000C093200128E020932101C09322012093DB
:100BA0002301C09324018AE080932501209326012C
:100BB0002093270184E18093280140922901E0E2FB
:100BC000F1E081911827CE16DF06D9F7109339018D
:100BD00010932A0184E090E00E94DB024BE050E099
:100BE00060E271E084E591E00E94A10185E090E07F
:100BF0000E94DB028091360190913701009731F01D
:100C00000E949508109237011092360180913401AC
:100C100090913501009731F00E94950810923501AE
:100C200010923401C09333015092320183E090E07E
:100C30000E94F9078C019093370180933601892B2C
:100C400081F410923F010E9431036114710409F490
:100C500052CF0E945802882309F44BCF0E94000013
:100C600048CFC093310185E08093300185E090E06A
:100C70000E94F9079093350180933401892B41F448
:100C8000C8010E9495081092370110923601D9CF01
:100C9000C0933F01DACF21E030E030933E01209352
:100CA0003D01823009F021C110922F01B090320134
:100CB000AA24A394AB0CA0922E01009136011091AE
:100CC0003701EA2CF12CB7016F5F7F4FC8010E94FA
:100CD000F10180934001902FF801912C8E2F891BF8
:100CE0008A1518F481919826F9CF90923901B3941E
:100CF000B394B09238019110A6CF0E0D1F1DF801CC
:100D00008081833009F09FCF1092400130903101F3
:100D100030922E0100913401109135017801A32CFD
:100D2000B12CC701801B910B8A159B05E8F484E068
:100D30000E94B500D1E0892B09F0D0E085E00E9447
:100D4000B500892B09F4D26086E00E94B500892B9A
:100D500009F4D46087E00E94B500892B09F4D860BB
:100D6000F701D1937F01DDCF30924001F89480915B
:100D70002C0190912D0110922D0110922C0178944C
:100D800097FD48C08F3791050CF04EC00A0D1B1D12
:100D9000F8018083809140018F5F80934001E09152
:100DA0002E01EF5FE0932E01809134019091350187
:100DB000E80FF92FF11D20E420937C0080917A0048
:100DC000806480937A0080917A0086FDFCCF8091C8
:100DD00078009091790090838183409140018091C7
:100DE0002E018E5F80932E01009134011091350108
:100DF00093E0E92EE40EE0924001F0903001EF1014
:100E00005CC0902FF8018E2F891B8E1578F481918C
:100E10009826F9CF9195819591098038910514F024
:100E20008FE790E08068B2CF8FE7B0CF9092390122
:100E3000F801EE0DF11D908284E0F82EF40EF09290
:100E4000400182E090E00E94DB024F2D50E0B801AB
:100E500084E591E00E94A10183E090E00E94DB0222
:100E60003090330130922B01809036019090370101
:100E7000E32CF12CE80CF91C57018A149B0459F15E
:100E800081E0A81AB108F501208023FA662760F9ED
:100E90008AE00E94DE0022FA662760F98BE00E9459
:100EA000DE0021FA662760F98CE00E94DE00622DE8
:100EB00061708DE00E94DE00E0CF82E090E00E9451
:100EC000DB026F2D84E591E00E948E028E2D90E072
:100ED0000E94DB02C1CFC7010E943D0333943394CB
:100EE00030922B010E943103AECE0E9431038091DB
:100EF0002F01863020F010922F0110923F01809137
:100F00002F018F5F80932F01A0CE0E94940100914A
:100F10004701109148012091490130914A01601B1D
:100F2000710B820B930B683E73408105910508F4A9
:100F30008CCE10923F0160E08DE00E94DE0060E008
:100F40008CE00E94DE0060E08BE00E94DE0060E04A
:100F50008AE00E94DE000E94310310923E0110924E
:100F60003D011092320180913601909137010E942B
:100F70003D0310922D0110922C01C093380165E0C1
:100F800070E080E090E00E9462015FCEE4E5F1E075
:100F90001382128288EE93E0A0E0B0E08483958310
:100FA000A683B7838EE091E09183808385EC90E007
:100FB0009587848784EC90E09787868780EC90E023
:100FC000918B808B81EC90E0938B828B82EC90E014
:100FD000958B848B86EC90E0978B868B118E128E8E
:100FE000138E148E0895EE0FFF1F0590F491E02DDF
:100FF00009940F931F93CF93DF938230910510F4E0
:1010000082E090E0E091F301F091F40130E020E023
:10101000B0E0A0E0309799F42115310509F44AC0F9
:10102000281B390B24303105D8F58A819B81611545
:10103000710589F1FB0193838283FE0111C0408118
:1010400051810281138148175907E0F04817590769
:1010500099F4109761F012960C93129713961C93C3
:101060003296CF01DF91CF911F910F910895009398
:10107000F3011093F401F4CF2115310551F042171B
:10108000530738F0A901DB019A01BD01DF01F80126
:10109000C1CFEF01F9CF9093F4018093F301CDCF4D
:1010A000FE01E20FF31F819391932250310939839E
:1010B0002883D7CF2091F1013091F201232B41F405
:1010C00020910601309107013093F2012093F10144
:1010D00020910401309105012115310541F42DB70E
:1010E0003EB74091080150910901241B350BE09156
:1010F000F101F091F201E217F307A0F42E1B3F0B70
:101100002817390778F0AC014E5F5F4F2417350779
:1011100048F04E0F5F1F5093F2014093F10181930D
:1011200091939FCFF0E0E0E09CCFCF93DF930097C7
:10113000E9F0FC01329713821282A091F301B09181
:10114000F401ED0130E020E01097A1F4208131811D
:10115000820F931F2091F1013091F2012817390776
:1011600009F061C0F093F201E093F101DF91CF91BA
:101170000895EA01CE17DF07E8F54A815B819E01F9
:1011800041155105B1F7E901FB83EA834991599172
:10119000C40FD51FEC17FD0761F480819181029681
:1011A000840F951FE90199838883828193819B83B2
:1011B0008A83F0E0E0E012968D919C91139700975E
:1011C000B9F52D913C911197CD010296820F931F95
:1011D0002091F1013091F2012817390739F6309743
:1011E00051F51092F4011092F301B093F201A09323
:1011F000F101BCCFD383C28340815181840F951FFD
:10120000C817D90761F44E5F5F4F88819981480FF5
:10121000591F518340838A819B8193838283211547
:10122000310509F0B0CFF093F401E093F3019ECFC4
:10123000FD01DC01C0CF13821282D7CFF894FFCF1B
:10124000A001A0010000F5018000000000008E0256
:0C125000A101CE01E0024C02DD013E02D3
:00000001FF
